{
    "_format": "hh-sol-artifact-1",
    "contractName": "LoveNFT",
    "sourceName": "contracts/LoveNFT.sol",
    "abi": [
        {
            "inputs": [],
            "stateMutability": "payable",
            "type": "constructor"
        },
        {
            "anonymous": false,
            "inputs": [
                {
                    "indexed": true,
                    "internalType": "address",
                    "name": "owner",
                    "type": "address"
                },
                {
                    "indexed": true,
                    "internalType": "address",
                    "name": "approved",
                    "type": "address"
                },
                {
                    "indexed": true,
                    "internalType": "uint256",
                    "name": "tokenId",
                    "type": "uint256"
                }
            ],
            "name": "Approval",
            "type": "event"
        },
        {
            "anonymous": false,
            "inputs": [
                {
                    "indexed": true,
                    "internalType": "address",
                    "name": "owner",
                    "type": "address"
                },
                {
                    "indexed": true,
                    "internalType": "address",
                    "name": "operator",
                    "type": "address"
                },
                {
                    "indexed": false,
                    "internalType": "bool",
                    "name": "approved",
                    "type": "bool"
                }
            ],
            "name": "ApprovalForAll",
            "type": "event"
        },
        {
            "anonymous": false,
            "inputs": [
                {
                    "indexed": true,
                    "internalType": "address",
                    "name": "previousOwner",
                    "type": "address"
                },
                {
                    "indexed": true,
                    "internalType": "address",
                    "name": "newOwner",
                    "type": "address"
                }
            ],
            "name": "OwnershipTransferred",
            "type": "event"
        },
        {
            "anonymous": false,
            "inputs": [
                {
                    "indexed": true,
                    "internalType": "address",
                    "name": "from",
                    "type": "address"
                },
                {
                    "indexed": true,
                    "internalType": "address",
                    "name": "to",
                    "type": "address"
                },
                {
                    "indexed": true,
                    "internalType": "uint256",
                    "name": "tokenId",
                    "type": "uint256"
                }
            ],
            "name": "Transfer",
            "type": "event"
        },
        {
            "inputs": [
                {
                    "internalType": "string",
                    "name": "baseTokenUri_",
                    "type": "string"
                }
            ],
            "name": "SetBaseTokenUri",
            "outputs": [],
            "stateMutability": "nonpayable",
            "type": "function"
        },
        {
            "inputs": [
                {
                    "internalType": "uint256",
                    "name": "tokenId_",
                    "type": "uint256"
                }
            ],
            "name": "TokenUri",
            "outputs": [
                {
                    "internalType": "string",
                    "name": "",
                    "type": "string"
                }
            ],
            "stateMutability": "view",
            "type": "function"
        },
        {
            "inputs": [
                {
                    "internalType": "address",
                    "name": "to",
                    "type": "address"
                },
                {
                    "internalType": "uint256",
                    "name": "tokenId",
                    "type": "uint256"
                }
            ],
            "name": "approve",
            "outputs": [],
            "stateMutability": "nonpayable",
            "type": "function"
        },
        {
            "inputs": [
                {
                    "internalType": "address",
                    "name": "owner",
                    "type": "address"
                }
            ],
            "name": "balanceOf",
            "outputs": [
                {
                    "internalType": "uint256",
                    "name": "",
                    "type": "uint256"
                }
            ],
            "stateMutability": "view",
            "type": "function"
        },
        {
            "inputs": [
                {
                    "internalType": "uint256",
                    "name": "tokenId",
                    "type": "uint256"
                }
            ],
            "name": "getApproved",
            "outputs": [
                {
                    "internalType": "address",
                    "name": "",
                    "type": "address"
                }
            ],
            "stateMutability": "view",
            "type": "function"
        },
        {
            "inputs": [
                {
                    "internalType": "address",
                    "name": "owner",
                    "type": "address"
                },
                {
                    "internalType": "address",
                    "name": "operator",
                    "type": "address"
                }
            ],
            "name": "isApprovedForAll",
            "outputs": [
                {
                    "internalType": "bool",
                    "name": "",
                    "type": "bool"
                }
            ],
            "stateMutability": "view",
            "type": "function"
        },
        {
            "inputs": [],
            "name": "isPublicMintEnable",
            "outputs": [
                {
                    "internalType": "bool",
                    "name": "",
                    "type": "bool"
                }
            ],
            "stateMutability": "view",
            "type": "function"
        },
        {
            "inputs": [],
            "name": "maxPerWallet",
            "outputs": [
                {
                    "internalType": "uint256",
                    "name": "",
                    "type": "uint256"
                }
            ],
            "stateMutability": "view",
            "type": "function"
        },
        {
            "inputs": [],
            "name": "maxSupply",
            "outputs": [
                {
                    "internalType": "uint256",
                    "name": "",
                    "type": "uint256"
                }
            ],
            "stateMutability": "view",
            "type": "function"
        },
        {
            "inputs": [
                {
                    "internalType": "uint256",
                    "name": "quantity_",
                    "type": "uint256"
                }
            ],
            "name": "mint",
            "outputs": [],
            "stateMutability": "payable",
            "type": "function"
        },
        {
            "inputs": [],
            "name": "mintPrice",
            "outputs": [
                {
                    "internalType": "uint256",
                    "name": "",
                    "type": "uint256"
                }
            ],
            "stateMutability": "view",
            "type": "function"
        },
        {
            "inputs": [],
            "name": "name",
            "outputs": [
                {
                    "internalType": "string",
                    "name": "",
                    "type": "string"
                }
            ],
            "stateMutability": "view",
            "type": "function"
        },
        {
            "inputs": [],
            "name": "owner",
            "outputs": [
                {
                    "internalType": "address",
                    "name": "",
                    "type": "address"
                }
            ],
            "stateMutability": "view",
            "type": "function"
        },
        {
            "inputs": [
                {
                    "internalType": "uint256",
                    "name": "tokenId",
                    "type": "uint256"
                }
            ],
            "name": "ownerOf",
            "outputs": [
                {
                    "internalType": "address",
                    "name": "",
                    "type": "address"
                }
            ],
            "stateMutability": "view",
            "type": "function"
        },
        {
            "inputs": [],
            "name": "renounceOwnership",
            "outputs": [],
            "stateMutability": "nonpayable",
            "type": "function"
        },
        {
            "inputs": [
                {
                    "internalType": "address",
                    "name": "from",
                    "type": "address"
                },
                {
                    "internalType": "address",
                    "name": "to",
                    "type": "address"
                },
                {
                    "internalType": "uint256",
                    "name": "tokenId",
                    "type": "uint256"
                }
            ],
            "name": "safeTransferFrom",
            "outputs": [],
            "stateMutability": "nonpayable",
            "type": "function"
        },
        {
            "inputs": [
                {
                    "internalType": "address",
                    "name": "from",
                    "type": "address"
                },
                {
                    "internalType": "address",
                    "name": "to",
                    "type": "address"
                },
                {
                    "internalType": "uint256",
                    "name": "tokenId",
                    "type": "uint256"
                },
                {
                    "internalType": "bytes",
                    "name": "_data",
                    "type": "bytes"
                }
            ],
            "name": "safeTransferFrom",
            "outputs": [],
            "stateMutability": "nonpayable",
            "type": "function"
        },
        {
            "inputs": [
                {
                    "internalType": "address",
                    "name": "operator",
                    "type": "address"
                },
                {
                    "internalType": "bool",
                    "name": "approved",
                    "type": "bool"
                }
            ],
            "name": "setApprovalForAll",
            "outputs": [],
            "stateMutability": "nonpayable",
            "type": "function"
        },
        {
            "inputs": [
                {
                    "internalType": "bool",
                    "name": "isPublicMintEnable_",
                    "type": "bool"
                }
            ],
            "name": "setIsPublicMintEnable",
            "outputs": [],
            "stateMutability": "nonpayable",
            "type": "function"
        },
        {
            "inputs": [
                {
                    "internalType": "bytes4",
                    "name": "interfaceId",
                    "type": "bytes4"
                }
            ],
            "name": "supportsInterface",
            "outputs": [
                {
                    "internalType": "bool",
                    "name": "",
                    "type": "bool"
                }
            ],
            "stateMutability": "view",
            "type": "function"
        },
        {
            "inputs": [],
            "name": "symbol",
            "outputs": [
                {
                    "internalType": "string",
                    "name": "",
                    "type": "string"
                }
            ],
            "stateMutability": "view",
            "type": "function"
        },
        {
            "inputs": [
                {
                    "internalType": "uint256",
                    "name": "tokenId",
                    "type": "uint256"
                }
            ],
            "name": "tokenURI",
            "outputs": [
                {
                    "internalType": "string",
                    "name": "",
                    "type": "string"
                }
            ],
            "stateMutability": "view",
            "type": "function"
        },
        {
            "inputs": [],
            "name": "totalSupply",
            "outputs": [
                {
                    "internalType": "uint256",
                    "name": "",
                    "type": "uint256"
                }
            ],
            "stateMutability": "view",
            "type": "function"
        },
        {
            "inputs": [
                {
                    "internalType": "address",
                    "name": "from",
                    "type": "address"
                },
                {
                    "internalType": "address",
                    "name": "to",
                    "type": "address"
                },
                {
                    "internalType": "uint256",
                    "name": "tokenId",
                    "type": "uint256"
                }
            ],
            "name": "transferFrom",
            "outputs": [],
            "stateMutability": "nonpayable",
            "type": "function"
        },
        {
            "inputs": [
                {
                    "internalType": "address",
                    "name": "newOwner",
                    "type": "address"
                }
            ],
            "name": "transferOwnership",
            "outputs": [],
            "stateMutability": "nonpayable",
            "type": "function"
        },
        {
            "inputs": [
                {
                    "internalType": "address",
                    "name": "",
                    "type": "address"
                }
            ],
            "name": "walletMints",
            "outputs": [
                {
                    "internalType": "uint256",
                    "name": "",
                    "type": "uint256"
                }
            ],
            "stateMutability": "view",
            "type": "function"
        },
        {
            "inputs": [],
            "name": "withdraw",
            "outputs": [],
            "stateMutability": "nonpayable",
            "type": "function"
        },
        {
            "inputs": [],
            "name": "withdrawWallet",
            "outputs": [
                {
                    "internalType": "address payable",
                    "name": "",
                    "type": "address"
                }
            ],
            "stateMutability": "view",
            "type": "function"
        }
    ],
    "bytecode": "0x60046080818152634c6f766560e01b60a090815261010060405260c0838152634c4f564560e01b60e05291926200003991600091620000e3565b5080516200004f906001906020840190620000e3565b5050506200006c620000666200008d60201b60201c565b62000091565b678ac7230489e80000600755600060085560646009556002600a55620001c6565b3390565b600680546001600160a01b038381166001600160a01b0319831681179093556040519116919082907f8be0079c531659141344cd1fd0a4f28419497f9722a3daafe3b4186f6b6457e090600090a35050565b828054620000f19062000189565b90600052602060002090601f01602090048101928262000115576000855562000160565b82601f106200013057805160ff191683800117855562000160565b8280016001018555821562000160579182015b828111156200016057825182559160200191906001019062000143565b506200016e92915062000172565b5090565b5b808211156200016e576000815560010162000173565b600181811c908216806200019e57607f821691505b60208210811415620001c057634e487b7160e01b600052602260045260246000fd5b50919050565b611dd680620001d66000396000f3fe6080604052600436106101b75760003560e01c806389f0d401116100ec578063b88d4fde1161008a578063d5abeb0111610064578063d5abeb01146104a7578063e985e9c5146104bd578063f0293fd314610506578063f2fde38b1461053357600080fd5b8063b88d4fde14610447578063c45580d414610467578063c87b56dd1461048757600080fd5b806395d89b41116100c657806395d89b41146103df578063a0712d68146103f4578063a22cb46514610407578063b53908451461042757600080fd5b806389f0d401146103875780638da5cb5b146103a15780638e3acec5146103bf57600080fd5b806342842e0e116101595780636817c76c116101335780636817c76c1461031c57806370a0823114610332578063715018a61461035257806385d178f41461036757600080fd5b806342842e0e146102c6578063453c2310146102e65780636352211e146102fc57600080fd5b8063095ea7b311610195578063095ea7b31461024b57806318160ddd1461026d57806323b872dd146102915780633ccfd60b146102b157600080fd5b806301ffc9a7146101bc57806306fdde03146101f1578063081812fc14610213575b600080fd5b3480156101c857600080fd5b506101dc6101d736600461191b565b610553565b60405190151581526020015b60405180910390f35b3480156101fd57600080fd5b506102066105a5565b6040516101e89190611b4f565b34801561021f57600080fd5b5061023361022e3660046119c7565b610637565b6040516001600160a01b0390911681526020016101e8565b34801561025757600080fd5b5061026b6102663660046118d6565b6106d1565b005b34801561027957600080fd5b5061028360085481565b6040519081526020016101e8565b34801561029d57600080fd5b5061026b6102ac366004611794565b6107e7565b3480156102bd57600080fd5b5061026b610818565b3480156102d257600080fd5b5061026b6102e1366004611794565b6108da565b3480156102f257600080fd5b50610283600a5481565b34801561030857600080fd5b506102336103173660046119c7565b6108f5565b34801561032857600080fd5b5061028360075481565b34801561033e57600080fd5b5061028361034d366004611746565b61096c565b34801561035e57600080fd5b5061026b6109f3565b34801561037357600080fd5b50600d54610233906001600160a01b031681565b34801561039357600080fd5b50600b546101dc9060ff1681565b3480156103ad57600080fd5b506006546001600160a01b0316610233565b3480156103cb57600080fd5b5061026b6103da366004611955565b610a29565b3480156103eb57600080fd5b50610206610a5f565b61026b6104023660046119c7565b610a6e565b34801561041357600080fd5b5061026b6104223660046118ac565b610c01565b34801561043357600080fd5b506102066104423660046119c7565b610c0c565b34801561045357600080fd5b5061026b6104623660046117d0565b610c9d565b34801561047357600080fd5b5061026b610482366004611900565b610cd5565b34801561049357600080fd5b506102066104a23660046119c7565b610d12565b3480156104b357600080fd5b5061028360095481565b3480156104c957600080fd5b506101dc6104d8366004611761565b6001600160a01b03918216600090815260056020908152604080832093909416825291909152205460ff1690565b34801561051257600080fd5b50610283610521366004611746565b600e6020526000908152604090205481565b34801561053f57600080fd5b5061026b61054e366004611746565b610dfa565b60006001600160e01b031982166380ac58cd60e01b148061058457506001600160e01b03198216635b5e139f60e01b145b8061059f57506301ffc9a760e01b6001600160e01b03198316145b92915050565b6060600080546105b490611cc8565b80601f01602080910402602001604051908101604052809291908181526020018280546105e090611cc8565b801561062d5780601f106106025761010080835404028352916020019161062d565b820191906000526020600020905b81548152906001019060200180831161061057829003601f168201915b5050505050905090565b6000818152600260205260408120546001600160a01b03166106b55760405162461bcd60e51b815260206004820152602c60248201527f4552433732313a20617070726f76656420717565727920666f72206e6f6e657860448201526b34b9ba32b73a103a37b5b2b760a11b60648201526084015b60405180910390fd5b506000908152600460205260409020546001600160a01b031690565b60006106dc826108f5565b9050806001600160a01b0316836001600160a01b0316141561074a5760405162461bcd60e51b815260206004820152602160248201527f4552433732313a20617070726f76616c20746f2063757272656e74206f776e656044820152603960f91b60648201526084016106ac565b336001600160a01b0382161480610766575061076681336104d8565b6107d85760405162461bcd60e51b815260206004820152603860248201527f4552433732313a20617070726f76652063616c6c6572206973206e6f74206f7760448201527f6e6572206e6f7220617070726f76656420666f7220616c6c000000000000000060648201526084016106ac565b6107e28383610e92565b505050565b6107f13382610f00565b61080d5760405162461bcd60e51b81526004016106ac90611be9565b6107e2838383610ff7565b6006546001600160a01b031633146108425760405162461bcd60e51b81526004016106ac90611bb4565b600d546040516000916001600160a01b03169047908381818185875af1925050503d806000811461088f576040519150601f19603f3d011682016040523d82523d6000602084013e610894565b606091505b50509050806108d75760405162461bcd60e51b815260206004820152600f60248201526e15da5d1a191c985dc819985a5b1959608a1b60448201526064016106ac565b50565b6107e283838360405180602001604052806000815250610c9d565b6000818152600260205260408120546001600160a01b03168061059f5760405162461bcd60e51b815260206004820152602960248201527f4552433732313a206f776e657220717565727920666f72206e6f6e657869737460448201526832b73a103a37b5b2b760b91b60648201526084016106ac565b60006001600160a01b0382166109d75760405162461bcd60e51b815260206004820152602a60248201527f4552433732313a2062616c616e636520717565727920666f7220746865207a65604482015269726f206164647265737360b01b60648201526084016106ac565b506001600160a01b031660009081526003602052604090205490565b6006546001600160a01b03163314610a1d5760405162461bcd60e51b81526004016106ac90611bb4565b610a276000611193565b565b6006546001600160a01b03163314610a535760405162461bcd60e51b81526004016106ac90611bb4565b6107e2600c8383611681565b6060600180546105b490611cc8565b600b5460ff16610ab55760405162461bcd60e51b81526020600482015260126024820152714d696e74696e67206e6f7420656e61626c6560701b60448201526064016106ac565b600754610ac29082611c66565b3414610b035760405162461bcd60e51b815260206004820152601060248201526f77726f6e67206d696e742076616c756560801b60448201526064016106ac565b60095481600854610b149190611c3a565b1115610b4d5760405162461bcd60e51b81526020600482015260086024820152671cdbdb19081bdd5d60c21b60448201526064016106ac565b600954336000908152600e6020526040902054610b6b908390611c3a565b1115610bad5760405162461bcd60e51b8152602060048201526011602482015270195e18d95959081b585e081dd85b1b195d607a1b60448201526064016106ac565b60005b81811015610bfd5760006008546001610bc99190611c3a565b600880549192506000610bdb83611d03565b9190505550610bea33826111e5565b5080610bf581611d03565b915050610bb0565b5050565b610bfd3383836111ff565b6000818152600260205260409020546060906001600160a01b0316610c6b5760405162461bcd60e51b8152602060048201526015602482015274746f6b656e20646f6573206e6f742065786973742160581b60448201526064016106ac565b600c610c76836112ce565b604051602001610c87929190611a57565b6040516020818303038152906040529050919050565b610ca73383610f00565b610cc35760405162461bcd60e51b81526004016106ac90611be9565b610ccf848484846113cc565b50505050565b6006546001600160a01b03163314610cff5760405162461bcd60e51b81526004016106ac90611bb4565b600b805460ff1916911515919091179055565b6000818152600260205260409020546060906001600160a01b0316610d915760405162461bcd60e51b815260206004820152602f60248201527f4552433732314d657461646174613a2055524920717565727920666f72206e6f60448201526e3732bc34b9ba32b73a103a37b5b2b760891b60648201526084016106ac565b6000610da860408051602081019091526000815290565b90506000815111610dc85760405180602001604052806000815250610df3565b80610dd2846112ce565b604051602001610de3929190611a28565b6040516020818303038152906040525b9392505050565b6006546001600160a01b03163314610e245760405162461bcd60e51b81526004016106ac90611bb4565b6001600160a01b038116610e895760405162461bcd60e51b815260206004820152602660248201527f4f776e61626c653a206e6577206f776e657220697320746865207a65726f206160448201526564647265737360d01b60648201526084016106ac565b6108d781611193565b600081815260046020526040902080546001600160a01b0319166001600160a01b0384169081179091558190610ec7826108f5565b6001600160a01b03167f8c5be1e5ebec7d5bd14f71427d1e84f3dd0314c0f7b2291e5b200ac8c7c3b92560405160405180910390a45050565b6000818152600260205260408120546001600160a01b0316610f795760405162461bcd60e51b815260206004820152602c60248201527f4552433732313a206f70657261746f7220717565727920666f72206e6f6e657860448201526b34b9ba32b73a103a37b5b2b760a11b60648201526084016106ac565b6000610f84836108f5565b9050806001600160a01b0316846001600160a01b03161480610fcb57506001600160a01b0380821660009081526005602090815260408083209388168352929052205460ff165b80610fef5750836001600160a01b0316610fe484610637565b6001600160a01b0316145b949350505050565b826001600160a01b031661100a826108f5565b6001600160a01b03161461106e5760405162461bcd60e51b815260206004820152602560248201527f4552433732313a207472616e736665722066726f6d20696e636f72726563742060448201526437bbb732b960d91b60648201526084016106ac565b6001600160a01b0382166110d05760405162461bcd60e51b8152602060048201526024808201527f4552433732313a207472616e7366657220746f20746865207a65726f206164646044820152637265737360e01b60648201526084016106ac565b6110db600082610e92565b6001600160a01b0383166000908152600360205260408120805460019290611104908490611c85565b90915550506001600160a01b0382166000908152600360205260408120805460019290611132908490611c3a565b909155505060008181526002602052604080822080546001600160a01b0319166001600160a01b0386811691821790925591518493918716917fddf252ad1be2c89b69c2b068fc378daa952ba7f163c4a11628f55a4df523b3ef91a4505050565b600680546001600160a01b038381166001600160a01b0319831681179093556040519116919082907f8be0079c531659141344cd1fd0a4f28419497f9722a3daafe3b4186f6b6457e090600090a35050565b610bfd8282604051806020016040528060008152506113ff565b816001600160a01b0316836001600160a01b031614156112615760405162461bcd60e51b815260206004820152601960248201527f4552433732313a20617070726f766520746f2063616c6c65720000000000000060448201526064016106ac565b6001600160a01b03838116600081815260056020908152604080832094871680845294825291829020805460ff191686151590811790915591519182527f17307eab39ab6107e8899845ad3d59bd9653f200f220920489ca2b5937696c31910160405180910390a3505050565b6060816112f25750506040805180820190915260018152600360fc1b602082015290565b8160005b811561131c578061130681611d03565b91506113159050600a83611c52565b91506112f6565b60008167ffffffffffffffff81111561133757611337611d74565b6040519080825280601f01601f191660200182016040528015611361576020820181803683370190505b5090505b8415610fef57611376600183611c85565b9150611383600a86611d1e565b61138e906030611c3a565b60f81b8183815181106113a3576113a3611d5e565b60200101906001600160f81b031916908160001a9053506113c5600a86611c52565b9450611365565b6113d7848484610ff7565b6113e384848484611432565b610ccf5760405162461bcd60e51b81526004016106ac90611b62565b611409838361153f565b6114166000848484611432565b6107e25760405162461bcd60e51b81526004016106ac90611b62565b60006001600160a01b0384163b1561153457604051630a85bd0160e11b81526001600160a01b0385169063150b7a0290611476903390899088908890600401611b12565b602060405180830381600087803b15801561149057600080fd5b505af19250505080156114c0575060408051601f3d908101601f191682019092526114bd91810190611938565b60015b61151a573d8080156114ee576040519150601f19603f3d011682016040523d82523d6000602084013e6114f3565b606091505b5080516115125760405162461bcd60e51b81526004016106ac90611b62565b805181602001fd5b6001600160e01b031916630a85bd0160e11b149050610fef565b506001949350505050565b6001600160a01b0382166115955760405162461bcd60e51b815260206004820181905260248201527f4552433732313a206d696e7420746f20746865207a65726f206164647265737360448201526064016106ac565b6000818152600260205260409020546001600160a01b0316156115fa5760405162461bcd60e51b815260206004820152601c60248201527f4552433732313a20746f6b656e20616c7265616479206d696e7465640000000060448201526064016106ac565b6001600160a01b0382166000908152600360205260408120805460019290611623908490611c3a565b909155505060008181526002602052604080822080546001600160a01b0319166001600160a01b03861690811790915590518392907fddf252ad1be2c89b69c2b068fc378daa952ba7f163c4a11628f55a4df523b3ef908290a45050565b82805461168d90611cc8565b90600052602060002090601f0160209004810192826116af57600085556116f5565b82601f106116c85782800160ff198235161785556116f5565b828001600101855582156116f5579182015b828111156116f55782358255916020019190600101906116da565b50611701929150611705565b5090565b5b808211156117015760008155600101611706565b80356001600160a01b038116811461173157600080fd5b919050565b8035801515811461173157600080fd5b60006020828403121561175857600080fd5b610df38261171a565b6000806040838503121561177457600080fd5b61177d8361171a565b915061178b6020840161171a565b90509250929050565b6000806000606084860312156117a957600080fd5b6117b28461171a565b92506117c06020850161171a565b9150604084013590509250925092565b600080600080608085870312156117e657600080fd5b6117ef8561171a565b93506117fd6020860161171a565b925060408501359150606085013567ffffffffffffffff8082111561182157600080fd5b818701915087601f83011261183557600080fd5b81358181111561184757611847611d74565b604051601f8201601f19908116603f0116810190838211818310171561186f5761186f611d74565b816040528281528a602084870101111561188857600080fd5b82602086016020830137600060208483010152809550505050505092959194509250565b600080604083850312156118bf57600080fd5b6118c88361171a565b915061178b60208401611736565b600080604083850312156118e957600080fd5b6118f28361171a565b946020939093013593505050565b60006020828403121561191257600080fd5b610df382611736565b60006020828403121561192d57600080fd5b8135610df381611d8a565b60006020828403121561194a57600080fd5b8151610df381611d8a565b6000806020838503121561196857600080fd5b823567ffffffffffffffff8082111561198057600080fd5b818501915085601f83011261199457600080fd5b8135818111156119a357600080fd5b8660208285010111156119b557600080fd5b60209290920196919550909350505050565b6000602082840312156119d957600080fd5b5035919050565b600081518084526119f8816020860160208601611c9c565b601f01601f19169290920160200192915050565b60008151611a1e818560208601611c9c565b9290920192915050565b60008351611a3a818460208801611c9c565b835190830190611a4e818360208801611c9c565b01949350505050565b600080845481600182811c915080831680611a7357607f831692505b6020808410821415611a9357634e487b7160e01b86526022600452602486fd5b818015611aa75760018114611ab857611ae5565b60ff19861689528489019650611ae5565b60008b81526020902060005b86811015611add5781548b820152908501908301611ac4565b505084890196505b505050505050611b09611af88286611a0c565b64173539b7b760d91b815260050190565b95945050505050565b6001600160a01b0385811682528416602082015260408101839052608060608201819052600090611b45908301846119e0565b9695505050505050565b602081526000610df360208301846119e0565b60208082526032908201527f4552433732313a207472616e7366657220746f206e6f6e20455243373231526560408201527131b2b4bb32b91034b6b83632b6b2b73a32b960711b606082015260800190565b6020808252818101527f4f776e61626c653a2063616c6c6572206973206e6f7420746865206f776e6572604082015260600190565b60208082526031908201527f4552433732313a207472616e736665722063616c6c6572206973206e6f74206f6040820152701ddb995c881b9bdc88185c1c1c9bdd9959607a1b606082015260800190565b60008219821115611c4d57611c4d611d32565b500190565b600082611c6157611c61611d48565b500490565b6000816000190483118215151615611c8057611c80611d32565b500290565b600082821015611c9757611c97611d32565b500390565b60005b83811015611cb7578181015183820152602001611c9f565b83811115610ccf5750506000910152565b600181811c90821680611cdc57607f821691505b60208210811415611cfd57634e487b7160e01b600052602260045260246000fd5b50919050565b6000600019821415611d1757611d17611d32565b5060010190565b600082611d2d57611d2d611d48565b500690565b634e487b7160e01b600052601160045260246000fd5b634e487b7160e01b600052601260045260246000fd5b634e487b7160e01b600052603260045260246000fd5b634e487b7160e01b600052604160045260246000fd5b6001600160e01b0319811681146108d757600080fdfea2646970667358221220eebbbb647e59e5d5175da0a1ef40564677514cd562e2bb41b50a62349bc6376064736f6c63430008060033",
    "linkReferences": {},
    "deployedLinkReferences": {}
}